011000015O0110000150020802000000000FEDERAL RESERVE BANK                1000 PEACHTREE ST N.E.              ATLANTA             GA303094470866234568111
011000028O0110000151060909000000000STATE STREET BANK AND TRUST COMPANY ONE LINCOLN STREET                  BOSTON              MA021112101617664240011
011000138O0110000151101310000000000BANK OF AMERICA, N.A.               8001 VILLA PARK DRIVE               HENRICO             VA232280000800446013511
011000206O0110000151072505000000000BANK OF AMERICA N.A                 PO BOX 27025                        RICHMOND            VA232617025800446013511
011000390O0110000151072505000000000BANK OF AMERICA N.A                 PO BOX 27025                        RICHMOND            VA232617025800446013511
011000536O0110000151052402000000000FEDERAL HOME LOAN BK BOST           111 HUNTINGTON AVE                  BOSTON              MA021990000617292979011
011001234O0110000151092310000000000MELLON TRUST OF NEW ENGLAND, N.A.   SUITE 960                           PITTSBURGH          PA152620001412236333811
011001276O0110000151030608000000000ONEUNITED BANK                      3683 CRENSHAW BL                    LOS ANGELES         CA900160000877663864811
011001331O0110000151070210000000000RBS CITIZENS, NATIONAL ASSOCIATION  1 CITIZENS DRIVE                    RIVERSIDE           RI029150000800883422411
011001726O0110000151062608000000000THE FIRST NATIONAL BANK OF IPSWICH  31 MARKET ST                        IPSWICH             MA019380000978356370011
